{
  "contractName": "Pixels",
  "abi": [
    {
      "constant": true,
      "inputs": [
        {
          "name": "x",
          "type": "uint256"
        },
        {
          "name": "y",
          "type": "uint256"
        }
      ],
      "name": "getPixelColor",
      "outputs": [
        {
          "name": "",
          "type": "bytes3"
        }
      ],
      "payable": false,
      "stateMutability": "view",
      "type": "function"
    },
    {
      "constant": false,
      "inputs": [
        {
          "name": "x",
          "type": "uint256"
        },
        {
          "name": "y",
          "type": "uint256"
        },
        {
          "name": "rgb",
          "type": "bytes3"
        },
        {
          "name": "memo",
          "type": "bytes32"
        }
      ],
      "name": "buyPixel",
      "outputs": [],
      "payable": true,
      "stateMutability": "payable",
      "type": "function"
    },
    {
      "constant": true,
      "inputs": [
        {
          "name": "row",
          "type": "uint256"
        }
      ],
      "name": "getRowPixelsColorDump",
      "outputs": [
        {
          "name": "",
          "type": "bytes3[32]"
        }
      ],
      "payable": false,
      "stateMutability": "view",
      "type": "function"
    },
    {
      "constant": true,
      "inputs": [],
      "name": "getGridSize",
      "outputs": [
        {
          "name": "",
          "type": "uint256"
        }
      ],
      "payable": false,
      "stateMutability": "pure",
      "type": "function"
    },
    {
      "constant": true,
      "inputs": [
        {
          "name": "x",
          "type": "uint256"
        },
        {
          "name": "y",
          "type": "uint256"
        }
      ],
      "name": "getPixel",
      "outputs": [
        {
          "name": "",
          "type": "bool"
        },
        {
          "name": "",
          "type": "address"
        },
        {
          "name": "",
          "type": "bytes32"
        }
      ],
      "payable": false,
      "stateMutability": "view",
      "type": "function"
    }
  ],
  "bytecode": "0x6060604052341561000f57600080fd5b61072d8061001e6000396000f30060606040526004361061006d576000357c0100000000000000000000000000000000000000000000000000000000900463ffffffff1680631bb166ec14610072578063214986ee146100f257806335bb6519146101495780635063d845146101a75780638a1dd162146101d0575b600080fd5b341561007d57600080fd5b61009c6004808035906020019091908035906020019091905050610256565b60405180827cffffffffffffffffffffffffffffffffffffffffffffffffffffffffff19167cffffffffffffffffffffffffffffffffffffffffffffffffffffffffff1916815260200191505060405180910390f35b61014760048080359060200190919080359060200190919080357cffffffffffffffffffffffffffffffffffffffffffffffffffffffffff1916906020019091908035600019169060200190919050506102b7565b005b341561015457600080fd5b61016a600480803590602001909190505061049a565b60405180826020800280838360005b83811015610194578082015181840152602081019050610179565b5050505090500191505060405180910390f35b34156101b257600080fd5b6101ba610639565b6040518082815260200191505060405180910390f35b34156101db57600080fd5b6101fa6004808035906020019091908035906020019091905050610642565b60405180841515151581526020018373ffffffffffffffffffffffffffffffffffffffff1673ffffffffffffffffffffffffffffffffffffffff1681526020018260001916600019168152602001935050505060405180910390f35b60008060008360208110151561026857fe5b606002018460208110151561027957fe5b6003020190508060000160149054906101000a90047d0100000000000000000000000000000000000000000000000000000000000291505092915050565b6000803491503390506000856020811015156102cf57fe5b60600201866020811015156102e057fe5b6003020160020160009054906101000a900460ff161580156103095750662386f26fc100008210155b15610451576080604051908101604052803373ffffffffffffffffffffffffffffffffffffffff168152602001857cffffffffffffffffffffffffffffffffffffffffffffffffffffffffff19168152602001846000191681526020016001151581525060008660208110151561037c57fe5b606002018760208110151561038d57fe5b6003020160008201518160000160006101000a81548173ffffffffffffffffffffffffffffffffffffffff021916908373ffffffffffffffffffffffffffffffffffffffff16021790555060208201518160000160146101000a81548162ffffff02191690837d010000000000000000000000000000000000000000000000000000000000900402179055506040820151816001019060001916905560608201518160020160006101000a81548160ff021916908315150217905550905050610492565b8073ffffffffffffffffffffffffffffffffffffffff166108fc839081150290604051600060405180830381858888f19350505050151561049157600080fd5b5b505050505050565b6104a26106b8565b6104aa6106b8565b60008090505b602081101561062f576000846020811015156104c857fe5b60600201816020811015156104d957fe5b6003020160020160009054906101000a900460ff1615156105765762ffffff7d01000000000000000000000000000000000000000000000000000000000002828260208110151561052657fe5b60200201907cffffffffffffffffffffffffffffffffffffffffffffffffffffffffff191690817cffffffffffffffffffffffffffffffffffffffffffffffffffffffffff191681525050610622565b60008460208110151561058557fe5b606002018160208110151561059657fe5b6003020160000160149054906101000a90047d0100000000000000000000000000000000000000000000000000000000000282826020811015156105d657fe5b60200201907cffffffffffffffffffffffffffffffffffffffffffffffffffffffffff191690817cffffffffffffffffffffffffffffffffffffffffffffffffffffffffff1916815250505b80806001019150506104b0565b8192505050919050565b60006020905090565b60008060008060008560208110151561065757fe5b606002018660208110151561066857fe5b6003020190508060020160009054906101000a900460ff168160000160009054906101000a900473ffffffffffffffffffffffffffffffffffffffff168260010154935093509350509250925092565b610400604051908101604052806020905b60007cffffffffffffffffffffffffffffffffffffffffffffffffffffffffff19168152602001906001900390816106c957905050905600a165627a7a72305820856c9f2e9c58f85ee81081457ff4b0315397fe51dfd7d7c9b576b59093e513390029",
  "source": "pragma solidity ^0.4.11;\n\n\ncontract Pixels {\n  // Pixel owner\n  struct PixelOwner {    \n    address owner;\n    bytes3 rgb; // \"0xffffff\"\n    bytes32 memo;    \n    bool owned;\n  }\n\n  // 32 x 32 GRID\n  uint constant GRID_SIZE = 32;\n  uint constant PIXEL_PRICE = 10000000000000000; // 0.01 ETH\n\n  // Multi dimensional array depicting pixel ownership\n  // Can't use constants to set fixed length arrays in solidity v0.4.18^\n  PixelOwner[32][32] pixelOwners;  \n\n  // Buy pixel on x, y coordinate\n  function buyPixel(uint x, uint y, bytes3 rgb, bytes32 memo) public payable {    \n    uint amountSent = msg.value;\n    address sender = msg.sender;   \n\n    // If no one owns the pixel\n    // Add pixel ownership\n    if (!pixelOwners[y][x].owned && amountSent >= PIXEL_PRICE) {\n      pixelOwners[y][x] = PixelOwner({\n        owner: msg.sender,\n        rgb: rgb,\n        memo: memo,\n        owned: true\n      });\n    } else {\n      // Else refund $$\n      sender.transfer(amountSent);\n    }\n  }\n\n  // Get all pixels on a row\n  function getRowPixelsColorDump (uint row) public constant returns (bytes3[32]) {\n    bytes3[32] memory b;\n\n    for (uint x = 0; x < 32; x++) {\n      // White by default\n      if (!pixelOwners[row][x].owned) {\n        b[x] = 0xffffff;\n      } else {\n        b[x] = pixelOwners[row][x].rgb;\n      }\n    }\n\n    return b;\n  }\n\n  function getPixel(uint x, uint y) public constant returns (bool, address, bytes32) {\n    // Just store in memory\n    PixelOwner storage po = pixelOwners[y][x];\n\n    // Can't return custom object, so just gonna return tuple\n    return (po.owned, po.owner, po.memo);\n  }\n\n  function getPixelColor(uint x, uint y) public constant returns (bytes3) {\n    // Just store in memory\n    PixelOwner storage po = pixelOwners[y][x];\n    return po.rgb;\n  }\n\n  function getGridSize() public pure returns (uint) {\n    return GRID_SIZE;\n  }\n}\n",
  "sourcePath": "/home/kendrick/Development/Ethereum/ethpixels/contracts/Pixels.sol",
  "compiler": {
    "name": "solc",
    "version": "0.4.18+commit.9cf6e910.Emscripten.clang"
  },
  "schemaVersion": "1.0.1",
  "updatedAt": "2017-11-04T11:44:57.718Z"
}